:020000041000EA
:1000000000B5324B212058609868022188439860DF
:10001000D860186158612E4B002199600221596106
:100020000121F02299502B49196001219960352056
:1000300000F044F80222904214D00621196600F024
:1000400034F8196E01211966002018661A6600F04E
:100050002CF8196E196E196E052000F02FF8012189
:100060000842F9D1002199601B49196000215960AB
:100070001A491B48016001219960EB211966A021F2
:10008000196600F012F800219960164914480160C1
:100090000121996001BC002800D000471248134993
:1000A000086003C880F30888084703B5996A0420EC
:1000B0000142FBD001200142F8D103BD02B5186610
:1000C0001866FFF7F2FF186E186E02BD00000240BE
:1000D000000000180000070000035F00212200005C
:1000E000F4000018222000A00001001008ED00E03C
:1000F00000000000000000000000000074B24E7A12
:1001000000200420F7010010C3010010C5010010F9
:10011000C1010010C1010010C1010010C101001097
:10012000C1010010C1010010C1010010C701001081
:10013000C1010010C1010010C9010010CB01001065
:10014000CD010010CD010010CD010010CD01001037
:10015000CD010010CD010010CD010010CD01001027
:10016000CD010010CD010010CD010010CD01001017
:10017000CD010010CD010010CD010010CD01001007
:10018000CD010010CD010010CD010010CD010010F7
:10019000CD010010CD010010CD010010CD010010E7
:1001A000CD010010CD010010CD010010CD010010D7
:1001B000CD010010CD010010CD010010CD010010C7
:1001C00000BE00BE00BE00BE00BE00BEEFF3058054
:1001D000103800BEF2EB8871505D0110705D0110A7
:1001E0003402001090A31AE700201F49086006C8D7
:1001F00081F3088810471D48006800282FD10DA4FE
:100200000ECC002902D000F012F8F9E71849194A7B
:10021000002000E001C19142FCD1174988471749ED
:1002200088471749884700BEFDE701C901C29A42C5
:10023000FBD37047705D0110C0000020B012002099
:10024000606F01100000042000000420606F0110A6
:10025000001004200010042000000000704709482E
:1002600003F05AFA0047000008ED00E0000000D05B
:10027000B01200201C220020F523001025040010DD
:10028000B52300105756000006005250ABB3605320
:1002900004DE001006005250861C030214DE00101B
:1002A000060052505422A29D1CDE00100500525040
:1002B000DE65F468606F0110F8B5C046064807496E
:1002C000091A8B10C90FC91810B5491003D0044B77
:1002D000002B00D0984710BDB0120020B0120020B3
:1002E00000000000054B10B5002B03D00449054861
:1002F00000E000BFFFF7E2FF10BDC04600000000B5
:10030000A41F002010D3001010B582B00C00144BB5
:10031000C3185A425341134A5B009B5E8B4204D080
:100320006B46DA1D1470002115E06B46DA1D0D23B3
:10033000137000210029F3D183699B06FCD4137844
:10034000036001310132F5E783699B06FCD4137821
:100350000360013101320029F6D002B010BDC04661
:100360000080FCBFFC21002030B583B004000D00EC
:10037000002313E06B46DA1D1170002006E0A3692C
:100380009B06FCD413782360013001320028F6D09C
:100390002B780D3B5A425341DBB2013529780029B5
:1003A00005D0002BE6D12000FFF7AEFFF0E703B049
:1003B00030BD82B000226B46D91D06E08369DB06A2
:1003C000FCD403680B7001320131002AF6D06B4671
:1003D000D87902B07047000010B508E00D4B1868DE
:1003E0000D4900220A541A600C4804F0E5FB0C4B3E
:1003F0009B69DB060CD40A48FFF7DBFF0A28EDD027
:10040000044B1A68044988541A6801321A60EEE7EE
:1004100010BDC046341F00203C1F002010D3001028
:100420000040034010B59AB004F0D2FB9621284C4E
:100430000901200001F040FD0221002000F056F8E3
:100440000221012000F052F8E1214902200001F0D0
:10045000D3FC236BC022120213401E4A13600023F8
:1004600001220821200001F0F5FC0021200001F00C
:1004700007FD1949142000F099F90121142000F01A
:100480006BF95023A363626B183B1340134A13604C
:1004900002E0642001F059F904F0B4FD0028F8D01E
:1004A000002300930E48694607F008FA00990D48AA
:1004B00004F082FB009A0C4901A803F0FFF801A99F
:1004C0000348FFF751FFFA2001F03FF9E8E7C04683
:1004D0000040034030500340D90300103450034023
:1004E00020D3001024D3001038D3001010B583009F
:1004F000084A944663441A68402462408034144099
:100500008022520113431C60C000034B9C46604490
:10051000416010BD04C0014000400140034B1B6816
:1005200002201840431E9841C0B2704700C00640E8
:10053000EFF3108072B6034B1B68002BFBD0BFF3A8
:100540005F8F70472C0100D0BFF35F8F024B0022FA
:100550001A6080F3108870472C0100D0F8B50600AF
:100560000C001500FFF7E4FFE308F718F15C072221
:100570002240012393400B4205D1DBB20B433B7079
:10058000FFF7E2FFF8BD2100280001F0AFFFF0B552
:1005900083B00600019114001F00FFF7C9FF00E0BF
:1005A0000134BC420CD8E308F518F35C0721214064
:1005B00001228A401A42F3D1D2B21A432A7001E0D2
:1005C00001246442FFF7C0FF002C02DB200003B0CF
:1005D000F0BD019B002BF9D0089801F087FF0000C7
:1005E000002307E0054A9A189200BFF35F8F0021AD
:1005F000116001331F2BF5D97047C046400000340D
:10060000054A1078431CDBB21370172B02D9130074
:1006100010221A707047C046000B002010B582B03F
:100620000100054C054B00931F2318222000FFF703
:10063000AEFF02B010BDC0468C1A00203CD30010A3
:10064000074B9B68103080001950BFF35F8FBFF3DA
:100650005F8F044B0021196082F310887047C046F9
:1006600000ED00E0240100D010B50388DA0A1C2A4E
:1006700005D15B055B1502335B00C01810BD034B51
:10068000034A0448B12101F099FEC04658D3001036
:10069000F8E3001070D3001010B5091A0B1F0A4AB6
:1006A00088180A4A904208D8C90706D45B105B052F
:1006B0005B0D0748184380B210BD064B064A074839
:1006C000A32101F07BFEC046FC070000FE0F0000E6
:1006D00000E0FFFFB8D30010ECE3001070D300106F
:1006E00010B5091A04394A08090B08D14905490D02
:1006F000064B0B430380064B1343438010BD054B51
:10070000054A0648AB2101F059FEC04600F0FFFF44
:1007100000F8FFFFE8D30010C0E3001070D3001012
:1007200001238340034A10681840431E9841C0B219
:100730007047C04600E100E0002904D0034B186078
:10074000034B18607047034B1860FBE780E200E042
:1007500000E100E080E100E010B5012383401800D3
:10076000FFF7EAFF10BD000001238340014A136038
:100770007047C04600E200E0024B9B6810308000EA
:10078000C058704700ED00E010B5FFF7F5FF0028F6
:1007900005D0054BC01A2F2803D8012010BD00201A
:1007A000FCE70020FAE7C046040B002070B5040007
:1007B0000D00EFF3108672B60C4B1B68002BFBD0BC
:1007C000BFF35F8F2000FFF7D7FF094B984201D09E
:1007D000A84205D1320029002000FFF731FF70BD8B
:1007E000044B054A0548862101F0E8FD240100D0AC
:1007F000CD010010F8D3001020E4001070D30010D9
:10080000F0B5DE4657464E464546E0B589B08146CE
:1008100001911500EFF3108A72B66D4B1B68002B27
:10082000FBD0BFF35F8F6B4B00269E57002E41DB42
:100830007400A419A400684824180622A256654B27
:100840001A70664B9A684B4610339B00D3589846F3
:100850001F00181A2F2839D9614B984530D105AFA0
:10086000604B3B80604973009B46981980005A4B4F
:10087000984640440230FFF70FFF78805B4BBB8007
:10088000FF23BB71FD71019B079333005B449B0009
:10089000434407CF07C301231C43A04652464146A9
:1008A0004846FFF7CDFE09B0F0BCBB46B246A946AC
:1008B000A046F0BD4E4B4F4A4F48D72101F07EFD78
:1008C0004E4B4C4A4C48DE2101F078FD01380C219A
:1008D00002F076FF002912D101239F43BB463B0063
:1008E0000027DA79AA4211D90621595600290CDBD2
:1008F0004A005218920038491F008B18F1E7404B0C
:100900003C4A3D48EA2101F059FD1F00002F2ED03E
:1009100005AB3C4A1A80813A5A800623FB56029363
:10092000002B17DA384805AB9B469880029A9A71DB
:10093000DD71019A0792381D2100FFF7ADFEB880E6
:10094000BE71254B7200921992009B185A4613CA29
:1009500013C3A3E7381DFFF787FE0100700080195D
:1009600080001D4BC0180430FFF796FEDBE705AF93
:100970001C4B3B801C49730002939B199B00164A39
:1009800090461A0042440392901CFFF785FE78803F
:10099000039A101D5946FFF77FFEB8801B4B5A463D
:1009A0004146521A524153431B0DBB71FD71019ACE
:1009B0000792029B9B199B00434407CF07C3114B2F
:1009C0005A461380813B538001231C43A04665E7B0
:1009D000240100D015220020040B002000ED00E0CF
:1009E000CD01001000A1FFFF340B002001BDFFFF6F
:1009F00030D4001008E4001070D3001058D4001058
:100A000080D400100148000001BD0000AAAA000027
:100A1000F0B5CE46474680B583B006000D00EFF333
:100A2000108872B64F4B1B68002BFBD0BFF35F8F53
:100A30004D4B9A6834001034A300D7584B4B9F425B
:100A400007D0AF4200D18BE00197494BFB1A2F2B07
:100A500009D9424639003000FFF7F2FD03B0C0BCAF
:100A6000B946B046F0BD3000FFF75AFE814600217E
:100A70003000FFF771FEBFF35F8FEFF305810029B0
:100A800001D08C4211D10123019C9C430020A3681A
:100A9000AB4212D00622A256002A0DDB53009B184F
:100AA0009B00334A2000D418F1E7324B324A3621FA
:100AB0003248FF3101F082FC2000AB4249D10625CB
:100AC0006557002D2BDB2A4B6A00521992009B18A8
:100AD0009A68A260DA79E2719B795BB2A371002B0C
:100AE0000FDA2748A080224B6A00521992009B1807
:100AF000244A11789971157049463000FFF72CFE91
:100B0000A7E7680040198000194BC0180430FFF7B0
:100B1000ABFD0100231D1800FFF7BEFDE2E7002931
:100B200012D100280ED0FF238371174B8380154903
:100B30000B78A3710E4A154BA41A644163431B0D35
:100B40000B70D9E7094FF2E71149201DFFF7C8FDE7
:100B5000D2E7104B084A6A210848FF3101F02EFC09
:100B6000024F76E7240100D000ED00E0CD01001037
:100B7000040B0020F4D40010D8E3001070D3001050
:100B800001BD00001522002001BDFFFFAAAA000040
:100B90003E0B002028D5001070B5012202432E4BD9
:100BA000D31A2F2B28D8EFF30583002B2BD0EFF38C
:100BB000108C72B6294909680029FBD0BFF35F8FFA
:100BC000254C274905002D1B6D416943090D4CB289
:100BD000244989689B00C95891421BD000210329F0
:100BE00032D81D4B4A00521892009B189B795BB279
:100BF000A3421FD00131F2E71B4B1C4AC7211C48FE
:100C0000490001F0DBFB1B4B184A92211848FF31C9
:100C100001F0D4FB134A92681749D150174B1A7848
:100C200082711C70BFF35F8F0C4B00221A608CF333
:100C3000108870BD084B4A005518AD005D19FF269D
:100C4000AE710F4AAA80E9E70E4B084AD121084845
:100C5000490001F0B3FBC046040B0020240100D082
:100C6000AAAA000000ED00E030D50010A4E30010B7
:100C700070D3001058D50010CD01001015220020AF
:100C800001BDFFFF64D500100022044B02E00449BF
:100C900002C30132072AFAD97047C04600E400E0D7
:100CA0008080808010B582B00100074C074B009314
:100CB000052300222000FFF76AFC002801DB1F2328
:100CC000181A02B010BDC0461A2200206CD50010C0
:100CD000024B9C466144890001607047400000342B
:100CE00010B5002B02DB0260436010BD024B034ACB
:100CF00003483F2101F062FB88D5001060E400103A
:100D0000A4D5001070B582B0060014001D00FA22B0
:100D1000920000230698002103F05EFC02000B0005
:100D200012196B41002B09DB6846FFF7D9FF009AC7
:100D3000019B32607360300002B070BD01225242EC
:100D4000004BF1E7FFFFFF7F10B582B0040000F019
:100D50008DFD02000B006846FFF7C2FF009A019B61
:100D600022606360200002B010BD30B585B0040081
:100D70000D0002A8FFF7E8FF029A039B00952000F0
:100D8000FFF7C0FF200005B030BD10B50400FFF72D
:100D900037FC01002000FFF79BFFFF232371BFF307
:100DA0005F8F10BD10B50400FFF72AFC0100200082
:100DB000FFF78EFFFF23237100236371BFF35F8F63
:100DC00010BD0000034B9C46614489000160BFF3E5
:100DD0005F8F70474000003410B504000120FFF71A
:100DE0001DFC01002000FFF7EDFF10BD084B5B6A02
:100DF000994209D8064A926A824207D2994201D0A2
:100E0000012002E0002000E0002070470120FCE704
:100E10000040054010B500290AD003681B7B8B42B7
:100E200006D38068054B9C4661440901401810BDFB
:100E3000034B044A04483C2101F0C0FAFFFFFF0FB6
:100E40008CD6001048E50010B0D60010F8B50400AC
:100E50001700FFF7DFFF0668456839002000FFF73D
:100E6000D9FF026843680120AB4201D802D00020BC
:100E7000C0B2F8BDB242FBD8F9E7000010B5002BB4
:100E800002DB0260436010BD024B034A03483F216E
:100E900001F094FA88D5001014E50010A4D50010D4
:100EA00010B582B004000498059912184B41002B2C
:100EB00009DB6846FFF7E2FF009A019B226063604E
:100EC000200002B010BD01225242014BF1E7C046A2
:100ED000FFFFFF7F10B5002908D0037B8B4205D3AD
:100EE00000684B005B18033BC01810BD024B034A5F
:100EF0000348682101F062FAF4D60010F0E4001013
:100F000010D7001010B5437B8B4201D1012010BDDA
:100F1000FFF7E0FF8378002B01D10020F7E70120E5
:100F2000F5E770B50400857B002D01D1280070BD68
:100F30002900FFF7CFFF4378A373002B00D1E373A1
:100F40000023837043700370F0E70000F8B50600DB
:100F50000C001500FFF7BEFF0700002C0DD0002D80
:100F600011D0AC4215D029003000FFF7B3FF8470D8
:100F70003B78002B13D13D70F8BD0A4B0A4A0B4851
:100F80006F2101F01BFA0A4B074A0848702101F053
:100F900015FA084B044A0548712101F00FFA437015
:100FA0003D70E9E768D70010CCE4001010D70010BE
:100FB00074D7001080D7001070B506000D00140023
:100FC000002914D0002A14D043688068984700286C
:100FD00006D0220029003000FFF7B8FF280007E004
:100FE0002A0021003000FFF7B1FF200000E01000D0
:100FF00070BD0800FCE7000070B504000D1E0CD0A9
:10100000FFF768FF0023837043700370617B2A0041
:101010002000FFF7D1FF607370BD034B034A044803
:10102000A52101F0CBF9C04698D70010E0E40010EC
:1010300010D7001070B504000D1E0FD0FFF762FF2F
:1010400000280BD1E17B00290ED1A37B002B03D11B
:10105000E37B002B0DD1A573E57370BD084B094AE6
:101060000948F62101F0AAF92000FFF733FF457087
:10107000EBE7064B034A0448FB2101F09FF9C04609
:101080009CD70010BCE4001010D70010C0D700108F
:1010900010B5002907D003681B7B8B4203D3C068BF
:1010A0000139401810BD034B034A0448412101F0A7
:1010B00085F9C0468CD60010A8E40010B0D6001008
:1010C00070B505000C00080000F0CAFC09492000BA
:1010D00000F00AFCFFF794FA074B9C46604480003E
:1010E00068602C75D0231B061B786B75034BA4001E
:1010F000E55070BD0D12001040000034C41F0020E8
:101100000A4B1A68EFF3108172B61368002BFCD0FB
:10111000BFF35F8F054B1B68BFF35F8F00221A6020
:1011200081F3108840BF002000217047E02100209B
:1011300010B582B0040000F099FB02000B00684675
:10114000FFF79CFE009A019B22606360200002B0C2
:1011500010BD70B584B0040016001D0002A8FFF792
:10116000E7FF029A039B009601952000FFF798FE87
:10117000200004B070BD0000F0B583B007000192FC
:101180001D000AAB1C780BAB1E78002C0BD000683E
:101190002100FFF7B7FE002809D0194B194A1A4859
:1011A000672101F00BF90068FFF7BBFE0400002C7B
:1011B00002D1200003B0F0BD21003800FFF72AFE65
:1011C000019B03604560089B8360099BC36038688E
:1011D0002100FFF711FFA042EBD1387D019A2B00CF
:1011E00000F0CAFB051E01D0002E04D00C9B002B82
:1011F000DFD01D70DDE73868210000F077FDF5E7EE
:10120000D4D70010FCE40010B0D60010F0B5DE46D4
:1012100057464E464546E0B58FB00B900021794BBE
:101220008200D458894683E029002000FFF7F2FDB0
:10123000804602684368921BBB41002B09DD434690
:101240001A685B680B9800F097FB0023984600260D
:101250008AE0002B01D1002AF1D10021584600F08C
:101260003BFD0700A84215D143461A685B68089207
:10127000099343469E68DB689846002E10D02900EB
:101280002000FFF705FF037899461B021F432761E3
:10129000002069E05C4B5D4A5D488E2101F08EF8CC
:1012A0005C4B5A4A5A48922101F088F82369002B76
:1012B00000D177E0BB4219D106980799002342423A
:1012C0008B4100920193089A099B0CA8FFF7E8FD57
:1012D0000C9A0D9B00210491013103910295414626
:1012E000019100962000FFF747FF16E04A4B474A5E
:1012F0004748A12101F062F8069A079B002B01D113
:10130000002A52D120682900FFF794FE290020000E
:10131000FFF7BEFE03780133037000232361626888
:10132000BFF35F8F13608AF310880120002861D01B
:101330000CA8FFF7FDFE0C9E0D9F002200230892D3
:1013400009936268EFF3108A72B61368002BFCD021
:10135000BFF35F8F23689B465D7B002D00D063E762
:1013600000239846002600206368BFF35F8F0022A9
:101370001A608AF31088002ED8D04B461F022F43E4
:1013800041463800B047069007916268EFF3108A33
:1013900072B61368002BFCD0BFF35F8F079B002B46
:1013A00000DA83E7079B002BA6DD2369002BA9D079
:1013B000BB4219D10CA8FFF7BBFE0C9A0D9B0698F7
:1013C0000799009001910CA8FFF76AFD0C9A0D9BFC
:1013D000002104910131039102954146019100964B
:1013E0002000FFF7C9FE98E70B4B084A0848A421E4
:1013F00000F0E4FF0FB0F0BCBB46B246A946A046E1
:10140000F0BDC046C41F0020FCD700102CE5001022
:10141000B0D6001014D8001020D8001010B50C4B16
:101420005B68002B04D00B480A21FFF751FC10BD6C
:10143000074C094A20682300102100F0B8FB032064
:1014400000F008FA03212000FFF73AFEEBE7C04660
:101450004C0B0020E02100204D0E001010B5064B73
:101460005B68002B01D0044810BD044B044A0548BA
:101470005E2100F0A3FFC0464C0B00205CD800109A
:1014800090E40010B0D60010F0B5DE4657464E4648
:101490004546E0B58DB0060090461F00169B9A4663
:1014A000179B994618AB1B780793272302AA9446EB
:1014B000634400221A7021E001003000FFF7E8FDCC
:1014C00000783CE00698002B5CD0079B002B59D09D
:1014D0004946D04704000D0003000B4359D00029B2
:1014E00040DB08A8FFF724FE089A099B00940195A9
:1014F00008A8FFF7D5FC089B9846099F7268EFF390
:10150000108B72B6136859424B41D9B20691002B29
:10151000F8D1BFF35F8F273302AA94466344049344
:101520000023039302934B46019353460093424694
:101530003B003000FFF720FE0400051EBCD173689D
:10154000BFF35F8F002119608BF31088002D17D037
:10155000272302AA944663441B78002BB2D10002D1
:101560002043B0E700236242AB4100920193424620
:101570003B0008A8FFF794FC089B9846099FBDE72D
:10158000012040420DB0F0BCBB46B246A946A04681
:10159000F0BD0698F6E7F0B5C64600B584B0050084
:1015A000884616001F000AAB1C78FFF757FF02940D
:1015B000019700962A004346FFF766FF04B080BCFF
:1015C000B846F0BDF0B5C64600B505000C1E42D0C9
:1015D0004268EFF3108772B61368002BFCD0BFF39C
:1015E0005F8FE6B22B68984631001800FFF78AFC3F
:1015F00000282AD02B69A34213D0240AE4B2310078
:101600002800FFF745FD0378A34211D000206B6846
:10161000BFF35F8F00221A6087F3108880BCB84642
:10162000F0BD0E4B0E4A2C210E48FF3100F0C6FED5
:101630003100404600F05AFB0028E8D10A4B084A26
:1016400099210848490000F0B9FE2B69A342DED178
:1016500000232B61DBE70020E0E7C04680D80010C4
:1016600078E40010B0D60010A4D8001010B5040023
:10167000FFF7F4FE2100FFF7A5FF10BD407D704786
:1016800030B587B004000D00EFF30583002B20D1A7
:1016900006225242D31712196B418B4202D803D152
:1016A000824201D90022002304A8FFF7E7FB02A829
:1016B000FFF73EFD02980399049A059B121A8B418D
:1016C000002B0BDC08D02000290000F0DBF807B06D
:1016D00030BD144800F00AFF002AF4D0124A0498E2
:1016E000059900230093FFF756FF002813DAEAE775
:1016F0000E4B1A68EFF3108172B61368002BFCD002
:10170000BFF35F8F094B1B68BFF35F8F00221A6026
:1017100081F3108820BF04980599FFF767FB002824
:10172000E6D0D0E7A8D8001001110010E021002079
:1017300000B583B002000B006846FFF70AFD009871
:101740000199FFF79DFF03B000BD10B5FA2292008A
:101750000023002102F040FFFFF7EAFF10BD000068
:1017600030B583B005000C00EFF30583002B0FD1DB
:101770000B4A00230093FFF70EFF00280BDD20BF6C
:10178000FFF774FF28002100FFF730FB03B030BDE6
:10179000FFF72CFBFAE728002100FFF727FBF5E70E
:1017A0000111001010B5002B02DB0260436010BD78
:1017B000024B034A03483F2100F000FE88D5001089
:1017C0007CE50010A4D5001070B5EFF3058010384B
:1017D000EFF3108C72B6194B1B68002BFBD0BFF3D4
:1017E0005F8F01221300834015494B6315490B603D
:1017F000154909780C00C440224213D0104A546A9B
:10180000124A8500AA58944205D3114AAA580E4C90
:101810009943217007E00A4A031D9B00995899508B
:10182000002200E00022BFF35F8F044B002119600B
:101830008CF31088002A00D0904770BD280100D09A
:10184000004005403C70054019220020EC2100209A
:101850007419002010B50100024A034B1800FEF76E
:101860007DFE10BDF8D8001014220020044B5B6AE6
:10187000034A906A1900536A9942F9D17047C046E9
:1018800000400540084B5B6A01E0074B5B6A8B42F6
:10189000FBD301E0044B5B6A8B4203D1024B9B6A92
:1018A0008342F7D37047C04600400540F0B583B08F
:1018B00004000D00FFF7DAFF06000F0022002B00E6
:1018C00092197B41994202D804D1904202D9012257
:1018D0005242D3176846FFF765FF00980199FFF75A
:1018E000D1FF03B0F0BD000070B504000E00EFF3AF
:1018F000108572B61B4B1B68002BFBD0BFF35F8FAC
:10190000002E1CD02000FEF737FF174B83420BD070
:1019100019002000FEF74AFF01212000FEF71CFFFE
:101920000123A340114A1360114BA400E650BFF3FA
:101930005F8F0C4B00221A6085F3108870BD0C4B32
:10194000A2000021D1500122A2400A490B78934302
:101950000B7005492000FFF75BF800212000FEF71F
:10196000FBFEE4E7280100D0C917001038600540ED
:101970007419002019220020F0B5DE4600B584B0AD
:101980000400150001921E000293FFF76FFF0395FC
:101990008E4202D84ED185424CD9EFF3108B72B6ED
:1019A000274B1B68002BFBD0BFF35F8F254A1778AE
:1019B0000125A540EBB23B431370234B5D63221D11
:1019C00092000199D150214AA100029888501B6AC7
:1019D0002B4212D11C4B1B6C2B4208D00020BFF3B2
:1019E0005F8F174B00221A608BF3108823E0184B8F
:1019F000184A1948C52100F0E1FCFFF737FF8E4275
:101A000014D802D1039B834210D80E4B1B78BB42E3
:101A10000ED00D4B1D625D631F22224001239340B7
:101A20000E4A1360074B1F700120D8E70020D6E74D
:101A30000120D4E7012004B080BCBB46F0BDC04605
:101A4000280100D01922002000400540EC21002090
:101A50001CD9001060E5001040D9001080E200E0C1
:101A6000EFF3108C72B60B4B1B68002BFBD0BFF34F
:101A70005F8F01238340084A136208490A789A431A
:101A80000A70BFF35F8F034B00221A608CF310883B
:101A90007047C046280100D00040054019220020B0
:101AA00010B5002908D0037B8B4205D300684B009A
:101AB0005B18033BC01810BD024B034A0348682162
:101AC00000F07CFCF4D60010D4E5001010D7001014
:101AD000F8B506000C001500FFF7E2FF0700002C28
:101AE0000DD0002D11D0AC4215D029003000FFF7E9
:101AF000D7FF84703B78002B13D13D70F8BD0A4BA3
:101B00000A4A0B486F2100F059FC0A4B074A084863
:101B1000702100F053FC084B044A0548712100F085
:101B20004DFC43703D70E9E768D70010C0E5001038
:101B300010D7001074D7001080D7001070B50600C1
:101B40000D001400002914D0002A14D043688068C6
:101B50009847002806D0220029003000FFF7B8FF80
:101B6000280007E02A0021003000FFF7B1FF200025
:101B700000E0100070BD0800FCE770B50500002310
:101B8000437301338373037BC373012406E0210095
:101B90002800FFF785FF0134E4B24470297BA1429D
:101BA000F5D82800FFF77CFF0023437070BD10B507
:101BB000017342608360FFF7E0FF10BDF0B5C646D9
:101BC00000B505000C1E03D1200080BCB846F0BD56
:101BD000FFF766FF4678002EF6D031002800FFF7A9
:101BE0005FFF477800239846437021002800FFF7E5
:101BF00057FF43464370320021002800FFF79EFF45
:101C0000040039002800FFF7D9FF02002100280056
:101C1000FFF794FF0400D7E7F0B5C64600B504000F
:101C20000D001700002927D0FFF73AFF4378002B5B
:101C300028D18378002B2BD101782000FFF7BEFF3D
:101C400006008046002F0AD0E17B002926D1A37B25
:101C5000002B03D1E37B002B25D1A573E57343460D
:101C6000002B26D129002000FFF71AFF0023437024
:101C7000300080BCB846F0BD114B124A12483821E2
:101C800000F09CFB114B0F4A0F483A2100F096FBE5
:101C90000F4B0C4A0C483B2100F090FB2000FFF753
:101CA000FFFE4570D3E70B4B064A0748422100F080
:101CB00085FB31002000FFF7F3FE00238370D1E79E
:101CC0008CD90010ACE5001094D90010D8D90010C0
:101CD00000DA0010C0D7001070B504000A00457B80
:101CE0002900FFF799FF6073280070BD70B50600EA
:101CF0000C1E40D0437B8B4207D0FFF7D1FE05007E
:101D00008178002906D1002036E00121FFF7E4FFA9
:101D1000012031E03000FFF7C3FE0178A1420DD071
:101D20003000FFF7BDFE4178A1420AD00029F7D16B
:101D3000124B134A13486B3100F040FB6B78037071
:101D400001E06B7843700023AB706B7001222100BF
:101D50003000FFF761FF0200717B814205D0300047
:101D6000FFF7ECFE7073012006E0074B044A0548BC
:101D7000712100F023FB002070BDC04664D5001027
:101D800094E5001094D9001024DA001070B5046BAB
:101D9000E30701D4200070BD02003032C0239B0154
:101DA00013430A4A1A60456A836AAD01ED18AD0211
:101DB000062000F0C5F9064901F002FD01002800E7
:101DC00001F0FEFC0021FFF771FDE3E701030000D5
:101DD0004E0E000070B504000E001500FFF7D6FF90
:101DE00022002C32E36A5E40354080235B011343BE
:101DF0001D60206370BD000070B505000C0006205A
:101E000000F09EF9C000210001F0DAFCC60908D0FC
:101E10000E4B9E4216D87F230340013334005E08E8
:101E200000E001246C62AE62002200212800FFF76E
:101E3000D1FF062000F084F98000A101891901F08A
:101E4000BFFC70BD0026024CECE7C046FEFF000060
:101E5000FFFF000010B505394901013AD2001143D6
:101E6000002B09D002220A43012B07D00021114385
:101E70006E22FFF7AFFF10BD0022F4E70421F6E762
:101E800010B5002900D010211022FFF7A3FF10BDCC
:101E9000002909D00A22064B9C466044434258411F
:101EA000044B4000C252704780225200F3E7C04604
:101EB0000080FCBFFC21002070B505000C0006204E
:101EC00000F03EF9061E27D0164B9D4226D08022F8
:101ED000D203154B1A60154B1A60154B9B68110005
:101EE0009943FAD100212800FFF7D2FF21002800F2
:101EF000FFF782FF06000023012208212800FFF7D8
:101F0000A9FF2A002C3280239B01134310221A6060
:101F1000084B2B630323AB64300070BD8022120496
:101F2000D7E7C0460080034000E0004000F00040DA
:101F300000C0004001030000F8B5DE4657464E469B
:101F40004546E0B506000F0015000A9A934250D3AB
:101F50001A0E92461B0298460A9A002340465146A2
:101F600001F06CFC81467400A419A4002F4B9C4620
:101F700064446368834200D26060331FDBB29B46D7
:101F8000012B3CD9C0239B012343802212011A60FC
:101F9000274BB200D158002907D0586901F010FC36
:101FA000013043001B18033BFDD26D0123685D40E7
:101FB000E0222A4080235B0123431A605A46012A0B
:101FC00028D980239B012343802212011A604B46AB
:101FD00063604A4600234046514601F02FFC144BF3
:101FE000B60098510120F0BCBB46B246A946A046B7
:101FF000F8BD104B104A1148332100F0DFF9012FD2
:10200000C0D1C0239B01234303221A60A368DB07CE
:10201000FCD5CAE72168794003220A401A60A36808
:102020000125BD401D42FAD0CBE7C04600800040EC
:10203000901A002044DA0010E0E5001058DA001091
:1020400030B583B00C2000F011F9FEF767FA0028D4
:102050000DD0002304E02E4A99002E488850013309
:10206000092BF8D92A4B2C4A5A6203B030BD2B4BAE
:1020700000229A6700F06CF9294B01221A60274B65
:102080005B6C012BFBD1274B03221A60234B9B6B0C
:10209000012BFBD1013300930433234A0121234850
:1020A00000F054F805230093214A0121214800F053
:1020B0004DF8214B0093002202210420FFF73CFF42
:1020C0001E4D00952B00002201210520FFF734FF53
:1020D000104C00942300002200210720FFF72CFF62
:1020E00000942300002200210820FFF725FF0A4B5F
:1020F00000932300002200210920FFF71DFF009517
:102100002B00002200210620FFF716FFADE7C04696
:10211000901A0020006CDC021BB700000080004019
:102120003CB0004030B00040002F685900800240B1
:10213000008C864700C00240001BB700405973075F
:10214000014B8000C0587047901A0020F0B5C64679
:1021500000B504000E0017001D00374801F030FBE9
:102160008046364BFA18364B9A4239D8010038006F
:1021700001F026FB0200103A98235B009A4235D802
:102180006B1E062B38D8069B013B062B34D83F0923
:10219000474537D32D04069B1B031D432368002BA3
:1021A00036DB284B9C4244D080235B01264A1360D7
:1021B000264A1360264A926819009143FAD1266094
:1021C000A060221DC0239B01134321221A602268B4
:1021D000002AFCDAE56008221A6080BCB846F0BD2F
:1021E0001C4B1D4A1D48112100F0E8F81C4B1A4AEF
:1021F0001A48192100F0E2F81A4B174A17481C2117
:1022000000F0DCF8184B144A1448232100F0D6F8EB
:1022100022683F231340B342C3D1A3681B051B0DA3
:102220008342BED1E368EE22D2021340AB42B8D162
:10223000D3E780239B01B9E7001BB70080E84BD3AD
:1022400080F8A93200C0024000E0004000F00040E9
:1022500000C00040A8DA0010F0E5001008DB001014
:1022600050DB00106CDB0010B8DB001080239B00FB
:102270000343014AD362704700800540024B1A684D
:10228000024B5A607047C046381F0020008005404E
:1022900010B5174B8022D2051A60164B164A1A60E9
:1022A00000290AD0154BE022D2041A60002809D177
:1022B000124B802212061A6010BD0D4BE022D20490
:1022C0001A60F3E743011B1A9B00181800010C4B1E
:1022D000186080235B04984202D3094B094A1A60B4
:1022E000FFF7CCFF054B8022D2051A60E4E7C04619
:1022F00000B0054008200140FCFF010000A005409F
:10230000381F0020FFFFFF0010B5030010000C4A2B
:102310008024E4051460002B0DD001221343094AE8
:10232000094CD461094C5C401462516293620021F3
:10233000FFF7AEFF10BD034B0022DA61F7E7C0469E
:1023400000B0054000800540D3C007B02D3FF84FD6
:10235000064BAA2212011A602F22DA60044B054AAA
:102360001A60024B5B68002BFBDA704700400240AA
:102370000060024000B0FA0000BEFDE703000A4A18
:102380001268002A08D0084A1068C318074A9A42FF
:1023900006D3054A13607047034A05491160F2E706
:1023A00001204042F7E7C046301B00200000042017
:1023B0001C22002010B5FFF7DFFF000030B583B00E
:1023C0000D001900002A0BD0074B084C0192009316
:1023D0002B000200200002F0EFFB0120FFF7CCFFF2
:1023E000034B1A00F1E7C046D4DB0010E4DB001019
:1023F000E0DB001070B52B4B2B4A1A602B4B2C4A9C
:102400001A602C4B9A682A4B9343FAD12A4C01E06C
:1024100008CC9847294B9C42FAD3FFF711FE234B77
:10242000274A1A60234B9B68DB43DB01FAD1254B1B
:1024300040229A675A671A67DA66234C09E0234BF1
:10244000234A24488721FFF7B9FF2000FEF79DFCAF
:102450000834214B9C4209D22368002BF5D0012B74
:10246000EDD12000FEF79EFC0834F2E71B4DA96871
:102470001B4CC022200002F097F9AC60EFF30583FB
:10248000002B00D000BEFEF7ABF8FEF7FDFBFEF719
:10249000C5FF144C01E008CC9847134B9C42FAD37B
:1024A00070BDC04600E00040BFCDFBFE00F0004024
:1024B000FE7F3C0000C0004098120020A8120020BF
:1024C000FFFFFF0100F001409012002014DC00101B
:1024D000FCE5001034DC00109812002000ED00E054
:1024E00000000020A8120020B01200200FB400B598
:1024F00083B0084802F030FB049B002B07D005A9ED
:102500000191180002F038FB034802F025FB01207E
:10251000FFF732FF80DC001090DC00109A4200D2FE
:1025200088547047704710B5002802D00B6849687E
:10253000984710BD0100002007E083001B185B00D6
:10254000501C08601078C01830380A681378303B87
:10255000DBB2092BF1D97047F0B5DE4657464E463F
:102560004546E0B583B093461F000C9B9A460D9CF0
:102570000E9B99460F9B9B0703D0B8460F000600A1
:1025800022E00192A34688464E46B9460700B4426F
:1025900007D2551C4B4641462020B84701342A003B
:1025A000F5E73D004F465C46019B9B46B1464646DB
:1025B000B84637002E0007E0013C551C5346185D15
:1025C00043463900B0472A00002CF5D135003E00C3
:1025D00047460F9B9B0707D4100003B0F0BCBB46D7
:1025E000B246A946A046F0BDB0464E46B9462F00B9
:1025F0005D46531BB342EFD2541C4B46414620204C
:10260000B8472200F5E7F0B5CE46474680B585B01D
:10261000944698460C9D0D9C0EAB1B789946109ADB
:10262000119B129EB7071CD4002B0CD0F7070AD5BC
:102630004F46002F02D10C37374204D0013B02E055
:1026400030272F550134944201D21F2CF8D9F707B7
:1026500007D59C4205D21F2C03D830272F550134B3
:10266000F5E7F70612D5770505D4002C03D0944280
:1026700021D09C421FD00F9A102A32D00F9A022AE2
:1026800037D01F2C0AD830222A5501341F2C05D8E8
:102690004A46002A33D02D222A550134039602934C
:1026A0000194009543466246FFF756FF05B0C0BC53
:1026B000B946B046F0BD621E012C10D00F9F102FFE
:1026C0000BD014000F9A102AD8D1B206D6D51F2CE1
:1026D000D4D858222A550134D3E7023CCBE7140062
:1026E000C9E7B206EED41F2CECD878222A55013463
:1026F000C7E71F2CD2D860322A550134C1E77207D0
:1027000003D52B222A550134C8E73207C6D520222B
:102710002A550134C2E7F0B5DE4657464E464546D7
:10272000E0B593B081468A46089209931CAB10CB62
:102730001B789B461E9D219B9846002C03D110239D
:1027400042469A4390468023DB0046461E4042465E
:102750001A4212D0002C22D000260EE03033D9B21B
:10276000771C0AAB99552900200001F029F8AC42EA
:1027700016D31F2F14D83E0004002900200001F0BA
:102780001FF8CBB2092BE9D94246920605D5412163
:10279000C918C9B20A39C9B2E2E76121F8E72700CE
:1027A00043460693209B05931F9B049303955B462A
:1027B000029301970AAB0093099B089A5146484639
:1027C000FFF721FF13B0F0BCBB46B246A946A046B6
:1027D000F0BDF0B5DE4657464E464546E0B597B0EB
:1027E0000A900B910C929A46209B9946219F22AA0F
:1027F00013789B46249B0993259C289B98464A4620
:102800003A4302D11032934398468022D200454683
:102810001540434613420AD04A463A4341D0002568
:102820002E0053460D934D46099B9A461BE02E0001
:1028300053460D934D46099B9A4614E03033DAB265
:10284000731C99460EAB9A55524623002800390056
:1028500000F0F4FFBC4226D819D04B461F2B1CD8E1
:102860004E4605000F00524623002800390000F0B4
:10287000E5FFD3B2092BE1D94246920605D54122A4
:10288000D218D2B20A3AD2B2DAE76122F8E7AA4500
:10289000E3D94E460D9B9A4608E04E460D9B9A465C
:1028A00004E0002602E04E460D9B9A4643460693FE
:1028B000279B0593269B0493099B03935B460293F6
:1028C00001960EAB009353460C9A0B990A98FFF7AA
:1028D0009AFE17B0F0BCBB46B246A946A046F0BD72
:1028E000F0B5DE4657464E464546E0B591B08046C7
:1028F00089460C929A461A9C1B9D22002B002000B0
:10290000290001F02EFA002800D0ECE0012252420A
:10291000D44B2000290001F01FFA002800D0E2E08B
:1029200001225242D04B2000290001F0FFF900287B
:1029300000D0D8E0002200232000290001F0F6F9A1
:10294000002800D0E4E0069407958023DB001E9A5F
:102950001A400D921E9A1A4201D106231C93069822
:10296000079902000B000892099303000A00024332
:1029700000D1D9E0080D4005400DBC4EB44660447E
:102980000A03120B1E00BA4B13431F0001F0FCF99F
:10299000B84AB94B01F07FF9B84AB94B01F054F984
:1029A000089009910022B74B3000390001F043F93B
:1029B000B54AB64B01F06FF902000B00089809996F
:1029C00001F042F901F0F8F9834601F0DDF9060063
:1029D0000F00AF4AAF4B01F05EF90022AE4B01F0A1
:1029E00033F901F0E9F90890AC4AAD4B30003900F9
:1029F00001F051F906000F00089801F0C5F9A94A45
:102A0000A94B01F048F902000B003000390001F039
:102A100012F906000F0002000B0001F03CF90A90C9
:102A20000B91089BA14A944663440021002208911F
:102A300009921B0509930023089332003B003000E4
:102A4000390001F001F90E900F9132003B00002097
:102A50008021C90501F0EFF806000F000022944B19
:102A60000A980B9901F0F9F80022924B01F0ECF86A
:102A700002000B000A980B9901F0EFF800228E4B30
:102A800001F0E2F802000B000A980B9901F0E5F85A
:102A900002000B003000390001F0D6F802000B00F4
:102AA0000E980F9901F0D9F80022714B01F0CCF883
:102AB000089A099B01F0EFF806000F0008960997A5
:102AC000069A079B01F048F900282FD001235B42AA
:102AD0009C46E3440022774B3000390001F0BDF8FA
:102AE0000890099122E01E9B04931D9B03931C9B5D
:102AF00002930094019553460C9A4946404600F0D3
:102B0000FFF811B0F0BCBB46B246A946A046F0BDE6
:102B10000021002206910792069480231B069C4602
:102B2000AC446346079310E700239B465B46633340
:102B3000C62B20D804261E9B1B0528D5089A099B66
:102B4000190011430FD05D4A5D4B0698079901F0BB
:102B5000FBF800287AD000225A4B0698079901F01A
:102B6000E5F8002872D01C9B5B4506DD5A469B1A8F
:102B7000013B1C9303E00526DDE700231C93802323
:102B8000DB001E9A1A431E92002600239B461D9BC3
:102B90009E4265D29F1B02231E9A1A400A921E9AD9
:102BA000134202D0002E00D000275B46002B07D036
:102BB000089A099B0698079901F04FF8069007912B
:102BC000002200232000290001F0B0F8002800D0E6
:102BD0007CE03D4B1E9A1340049303971C9B029389
:102BE000069B079C0093019453460C9A4946404625
:102BF00000F086F8002E00D183E71E9B9B0671D55E
:102C00004525441C5346020049462800C0475A4601
:102C1000D317D2185A4005230593013E049600238A
:102C200003930A3302935B46DB0F019300925346F2
:102C3000220049464046FFF76EFD0A9B002B00D15B
:102C40005FE7020047460C9E1D9D53E01C9B002B36
:102C50009DD00D9B002B9AD01C9B013B1C9396E7AB
:102C6000002798E7FFFFEF7FFFFFEFFF01FCFFFF6B
:102C70000000F03FFB799F501344D33FB3C8608BF3
:102C8000288AC63F0000F83F61436F63A787D23FA1
:102C900071A379094F930A400000E03F1655B5BB78
:102CA000B16B0240EF39FAFE422EE63FFF0300000F
:102CB00000002C4000002440000018402D431CEB75
:102CC000E2361A3F80842E41FFF7FFFF069C079DE6
:102CD0002200290080200006844661440B000692F1
:102CE000079376E765258CE7541C53464946202018
:102CF000B8472200931BAB42F6D3100001E7C04651
:102D0000F0B5DE4657464E464546E0B595B00690CE
:102D1000079193469946209F1E9A1F9B1000190009
:102D200001F01FF8002831D101225242BF4B1E98FA
:102D30001F9900F0FBFF002837D101225242BC4B03
:102D40001E981F9901F008F800283DD10022B94BC8
:102D50001E981F9901F000F8002850D10022B64BB0
:102D60001E981F9900F0E2FF002848D1002200239E
:102D70001E981F9900F0DAFF002850D100239846D2
:102D8000229B5B0500D4B6E0002458E0229B03930D
:102D9000219B029303230193A84B00934B465A4671
:102DA00007990698FFF7D8FB0EE1229B0393219B1E
:102DB000029304230193A24B00934B465A46079972
:102DC0000698FFF7C9FBFFE00423229A1A402299D4
:102DD0000B4210D09B4B002A0FD004222299039162
:102DE00021990291019200934B465A460799069801
:102DF000FFF7B2FBE8E0944BEDE70322EEE7229BFE
:102E00000493219B039302971E9B1F9C00930194A4
:102E10004B465A4607990698FFF762FDD4E01E9A82
:102E20001F9B0020002100F006FF1E901F91012330
:102E30009846A5E70CAB30221A55013F01341F2CF0
:102E400001D8092FF6D81E981F9900F0B5FF05008C
:102E500000F09AFF02000B001E981F9900F0EBFE95
:102E60007A4BFA009B181A685B680A920B9300F081
:102E700012FF0890099100F0C3FF060000F080FFE8
:102E800002000B000898099900F0D5FE08900991FE
:102E900000226F4B00F060FF00282ED0013630007A
:102EA00000F06EFF02000B000A980B9900F044FF3F
:102EB000002801D001350026002F2CD1280000F079
:102EC00063FF02000B001E981F9900F0B4FE06007D
:102ED0000F0000225E4B00F029FF002846D100229F
:102EE0005B4B3000390000F037FF00283ED1EB0784
:102EF0003CD501353AE0062746E70022544B0898B6
:102F0000099900F013FF0028D6D1002E01D0F30755
:102F1000D2D50136D0E7AA461F2C11D8013F0A218D
:102F2000300000F04DFC651C30310CAB19550A2106
:102F3000300000F045FC092E0ED906002C00EBE70E
:102F400055461F2C0CD87B1E002F09D00CAA30210F
:102F500011551F000134F4E72B0055461C00F0E723
:102F60001F2C03D80CAB2E221A5501341F2C10D85D
:102F70000A21280000F0FCFB661C30310CAB19550F
:102F80000A21280000F0F4FB051E01D03400EDE713
:102F900034000323229A1340012B1CD01F2C06D887
:102FA0004346002B32D00CAB2D221A550134229B04
:102FB0000393219B029301940CAB00934B465A461A
:102FC00007990698FFF7C8FA15B0F0BCBB46B246A1
:102FD000A946A046F0BD219B002B13D04346002BF1
:102FE00002D10C3313420FD0219B013B21931900D6
:102FF00003E00CAB30221A5501348C42CED21F2C88
:10300000F7D9CBE72199F8E72199F6E7229B5B07EF
:1030100004D50CAB2B221A550134C8E7229B1B07A1
:10302000C5D50CAB20221A550134C0E7FFFFEFFFD6
:10303000FFFFEF7F65CDCD4165CDCDC1A0DC001098
:10304000A4DC001094DC00109CDC0010A8E7001049
:103050000000E03FF0B5DE4657464E464546E0B537
:1030600093B08246884693461193002900D10DE320
:1030700000255646119B1878002800D109E3252821
:1030800009D06C1C5B462A004146B047119B0133B6
:1030900011932500EEE701331193002720E001236F
:1030A0001F4301321192012418E002231F43013211
:1030B0001192012412E004231F43013211920124D2
:1030C0000CE008231F4301321192012406E0102373
:1030D0001F4301321192012400E00024002C09D08A
:1030E000119A1378203BD9B21029F6D88B00C84921
:1030F000CB589F46119B1A781300303BDBB2092B4B
:1031000010D92A2A13D00B94119B1A782E2A1ED07C
:10311000119A1378683BD9B2122959D88B00BD494E
:10312000CB589F4611A8FFF705FA0B90ECE71C9BC4
:103130001A1D1C921B68002B04DB0B93119B01339F
:103140001193E1E7022217435B420B93F6E78022DB
:10315000D20017435A1C11925A781300303BDBB24D
:10316000092B0BD92A2AD3D11C9B1A1D1C921C682F
:10317000002C08DB119B01331193C9E711A8FFF75D
:10318000D9F90400C4E70024F4E780235B003B4343
:10319000511C119151786C2901D01F0018E0C023F7
:1031A0009B001F430232119212E080233B43511CCB
:1031B00011915178682901D01F0009E0C0231F43F5
:1031C0000232119204E080235B001F43013211920E
:1031D000119B1878672818D8252800D24CE20300E4
:1031E000253BDAB2422A00D946E293008A4AD358F4
:1031F0009F4680239B001F4301321192E8E7802302
:103200005B001F4301321192E2E7782800D933E2D4
:10321000692800D230E20200693AD2B20123934019
:103220007E4A134211D11A0600D500E25B0500D494
:1032300022E21C9B1A1D1C921B689A46002C00D08F
:10324000B2E10122524253468EE16F280ED006D8D9
:1032500058283DD0622804D102239C4608E07828F3
:1032600039D010239F43063B9C4601E008239C462F
:10327000582833D0692803D0642801D00C22974302
:103280007A0501D50122974369282AD0642828D0DD
:10329000BA0500D59FE0FA0500D5C1E07A0600D452
:1032A000D3E01C9A111D1C911168FF220A4005975A
:1032B0000B9B0493039463460293002301930092B3
:1032C0005B462A0041463000FFF725FA050027E05B
:1032D00010239C46CCE710239C46C9E720221743C5
:1032E000C8E7BA0520D4FA0550D47A0666D51C9AE8
:1032F000111D1C911168FF220A40D017111841407E
:1033000005970B9B0493039463460293D20F01929B
:1033100000915B462A0041463000FFF7FCF90500AA
:10332000119B01331193A5E61C9A073207218A43AA
:10333000110008311C91116853689946DB170C93F2
:103340000D930C9A0D9B100048400E904A46534036
:103350000F930E980F990C9A0D9B801A99410E901D
:103360000F9108970B9B07930694634604930023E1
:1033700005934B46DA0F0292009001915B462A00BA
:1033800041463000FFF725FA0500C9E71C9A111DD8
:103390001C911268D0171118414005970B9B04939C
:1033A000039463460293D20F019200915B462A0078
:1033B00041463000FFF7AFF90500B1E73A0605D501
:1033C0001C9A111D1C910023D25E96E71C9A111DB8
:1033D0001C91126891E71C9A073207218A43110059
:1033E00008311C9108970B9B07930694634604933E
:1033F00000230593029353681268009201935B4681
:103400002A0041463000FFF7E4F9050088E7C0468E
:103410000CE6001050E600109CE600104190000001
:103420001C9A111D1C9105970B9B049303946346F2
:10343000029300230193136800935B462A004146E0
:103440003000FFF768F905006AE73A0606D51C9ACE
:10345000111D1C9112681204120C28E71C9A111DF0
:103460001C91126823E7462819D01C9B07330722BA
:1034700093431A0008321C9204970B9A0392029409
:103480001A685B68009201935B462A00414630004F
:10349000FFF736FC0500119B01331193EAE5202369
:1034A0001F43E2E7672801D0472802D180231B0190
:1034B0001F43452801D0472801D120231F431C9BCF
:1034C0000733072293431A0008321C9204970B9A81
:1034D000039202941A685B68009201935B462A008B
:1034E00041463000FFF7FCF90500119B01331193B1
:1034F000C0E502231A003A4091463B421DD0012408
:103500001C9B1A1D1C926F1C18785B462A004146B2
:10351000B0474B46002B14D1119B013311933D0052
:10352000A8E5571C5B4641462020B04723003A00DF
:103530005C1C9D42F5D81500E2E701232A000B9D93
:10354000F6E73A00B1460B9E06E0571C5B46414643
:103550002020C8472C003A00651CA642F5D8170069
:103560004E46D9E701330A001978002902D0511ECE
:10357000002AF7D152469B1A8022D200390011400E
:103580008946174202D0A34200D92300022211002B
:10359000394010913A4209D02A00250057469A46F0
:1035A00033004E46994621E022004CE62A0045466B
:1035B000A04606E0541C5B4629002020B0473B0093
:1035C00022005F1C0B999942F4D84446A8463B0060
:1035D000250057469A4633004E46994606E01D00A0
:1035E0000137541C5B464146C84722003878002802
:1035F00004D0002EF4D06B1E002DF0D115005346E0
:103600004E46109A002A03D1119B0133119331E5E4
:103610000B9F2A0006E0551C5B4641462020B04720
:1036200023002A005C1C9F42F5D81500ECE72123FB
:103630003B431C9A111D1C911268059308230493A7
:103640000394083302930023019300925B462A00FF
:1036500041463000FFF75FF80500119B01331193DD
:1036600008E56C1C5B462A0041462520B047119BAB
:10367000013311932500FDE46C1C5B462A00414692
:10368000B047119B013311932500F3E40A4B9A468E
:10369000EEE4B2465D450DD35B465A1E5B4641469D
:1036A0000020D047280013B0F0BCBB46B246A94664
:1036B000A046F0BD2A00F1E7252500100EB430B574
:1036C00084B0010007AC08CC03940122054D00949E
:1036D00052422800FFF7BEFC04B030BC08BC03B067
:1036E0001847C0461D25001000B585B00290039113
:1036F00001210448009313004A4202A9FFF7AAFCE3
:1037000005B000BD2725001001480421014B1847D2
:10371000800B00203937001010B5010018231B88DA
:1037200014221088984710BD10B5010018231B887B
:1037300016221088984710BDF0B5C64600B50700A0
:103740000E0000250123984600E00135B5420AD25B
:10375000AC003C192068FFF7DFFF20600028F4D19F
:1037600000239846F1E7404680BCB846F0BD000013
:10377000124A936F9B0815D29066D166002905D036
:10378000FFE7FFE7FFE7516F106F704704B5802137
:103790000906C2175140002800D0C84309F068FD4F
:1037A000002104BDF0B5146E556E576F166FFFF70C
:1037B000E3FF1466556657671667F0BD000000D03A
:1037C000114A936F9B0813D210665166002905D0E9
:1037D000FFE7FFE7FFE7516F106F704704B5002860
:1037E00001D00020C04309F043FD002104BDC046C4
:1037F000F0B5146E556E576F166FFFF7E5FF146640
:10380000556657671667F0BD000000D094464A4AD7
:10381000926F9208624601D228E0C046F0B5464E4B
:10382000346E756E776F366F00F020F89446424A1A
:1038300014665566576716676246F0BD94463E4A61
:10384000926F9208624601D254E0C046F0B53A4EFB
:10385000346E756E776F366F00F04CF89446364ACA
:1038600014665566576716676246F0BD002B24DB69
:1038700011D000293EDA00B5C943404200D10131E0
:1038800000F038F8C943404200D10131DB435242D5
:1038900000D1013300BD002AEBD1002801D100295D
:1038A00005D00020C90FC90701D1C043410800B5A8
:1038B00009F0D6FC0022002300BD00B500290ADB78
:1038C000DB43524200D1013300F014F8C9434042B7
:1038D00000D1013100BDC943404200D10131DB4379
:1038E000524200D1013300F005F8DB43524200D1CF
:1038F000013300BD002923D1002B18D1002A0CD0A0
:10390000BC460D4F38667A6600210023FFE7FFE7CB
:10391000FFE77A6F386F67467047002801D0074885
:10392000010000B509F09CFC0022002300BD02004C
:103930000B00002000217047000000D0FFFFFFFFB8
:10394000002B00D0BFE0130C28D1002AE7D080B4B0
:10395000114F39667A66FFE7FFE730B4040C7B6FDE
:10396000396F1B0423433B667A66FFE7FFE7FFE7F7
:10397000C04684B27B6F3D6F1B0423433B667A666F
:10398000FFE7FFE7C04600232C042D0C7A6F386F49
:1039900000196941B0BC7047000000D0F0B59446F2
:1039A0000025140E01D112020835140F01D11201A5
:1039B0000435940F01D192000235D40F01D1520089
:1039C0000135D40B0134254F7C66254C3C660E0C2A
:1039D00093B2FFE7FFE7FFE73C6F6643360C7703E0
:1039E000BE467343DF0B5B04C01AB941130C73432B
:1039F000DB18C91ACE086643360CB64493B273433B
:103A00001F0F1B01C01AB941130C73431F0B1B0579
:103A1000C01AB941860D8F023E436643360C092D0C
:103A200024DB520A7243801A7703460A6643360C37
:103A300016235B1BDE40DF40BF1964466643821BD2
:103A40007046043506330100D940A840C01900D3A0
:103A50000131A24206D20023F0BD0000000000D0D8
:103A6000FFFFFFFF121B0130F3D3F1E709277F1B94
:103A7000FE406446A2B27243801A00D20139220C81
:103A80007243130C1204821A99410B0070460435DC
:103A900013370100F940A840801900D30131002BF1
:103AA00002D1A2420AD2F0BD013000D30131121B73
:103AB000FAD2013BF8D1A24200D2F0BD013000D3CE
:103AC0000131121BF7E7F0B51C0C00D080E00CB4FC
:103AD00000251C0A04D11B02160E334312020835BE
:103AE0001C0B04D11B01160F3343120104359C0B30
:103AF00004D19B00960F334392000235DC0B02D1B8
:103B000092185B4101351C00971864410134464FFF
:103B10007C66464C3C660E0CFFE7FFE7FFE7C046BD
:103B20003C6F6643360C7703BE4697B27743C01BA3
:103B300000D20139C01B00D201399FB27743C91BA3
:103B4000C91B170C77437E04FF0B801BB941CE08BD
:103B50006643360C0C2D33DBB644120B1F053A437B
:103B60001B0B97B27743C01B00D201399FB277433A
:103B7000C91B170C77433E043F0C801BB941860DCF
:103B80008F023E43664329277F1BFE400C3D77464C
:103B9000AF40BF1930BCA2B2ABB272437343801ABC
:103BA0009941220C7243130C1204801A99410200AD
:103BB0000B000137001BA941F9D2781E0021F0BD8E
:103BC0000C277F1BFE4077467F0BAF40FF19E0E7D5
:103BD00000245D1C07D0144F7D663966FFE7FFE7C0
:103BE000FFE7FFE73C6F95B29EB265436643401B1B
:103BF000B141150C1E0C6543664336042F0C3E4341
:103C00002D04401BB141994204D202000B00200058
:103C10000021F0BD01D19042F7D3801A99410134BF
:103C20009942F2D3F6E70000000000D0FFFFFFFF4B
:103C300048404140484018B41B4B5B68FC46019328
:103C400008BD04DFA73F001018B4174B1B68FC46E3
:103C5000019308BD00DFB13F00109446134A926FF4
:103C6000920809D2624618B40F4BDB68FC460193F8
:103C700008BD0CDF694200100C4AF0B5146E556E99
:103C8000576F166F6246FFF7EEFF084A14665566D7
:103C900057671667F0BD18B4034B9B68FC46019349
:103CA00008BD08DF0D410010DC1F0020000000D01F
:103CB000FFB550404240504059404B40594000E011
:103CC000FFB5154F4C00640D03D0BC4204D10C036A
:103CD00014D80020090D09055C00640D03D0BC4216
:103CE00004D11C030AD800221B0D1B0501264B40E2
:103CF00009D44B4003D58B4200D18242FFBD99428B
:103D0000FCD19042FFBD0B43DB1803431343F5D0B6
:103D1000C9434918FFBD0000FF07000000B5FFF7C9
:103D2000CFFF01D0002000BD012000BD00B5FFF78E
:103D3000C7FF804100BDC04600B5FFF7C1FF01D9F4
:103D4000002000BD012000BD00B5FFF7B1FF01D983
:103D5000002000BD012000BD00B5FFF7A9FF804194
:103D600000BD012040054A00121804D85A0012185C
:103D700001D80020704701207047002070470000E4
:103D80000021002805D17047C1174840401AFAD0D9
:103D9000C90713B5064B1B6898470CBC441CA240CE
:103DA0001005120B0349091B09051943114310BDE6
:103DB000DC2000201F04000010B54C00620D8023A1
:103DC000D218DB00D21A5B057E2A10DD9E3A13DA88
:103DD000CC170903490819435242D1406400013409
:103DE0001532202A05DAD0400843604310BD002078
:103DF00010BD0846604310BDC80FC018013810BD83
:103E000018B4044B5B6AFC46019308BD24DF1944D7
:103E100000100000DC1F002018B4044BDB6DFC46D2
:103E2000019308BD5CDF254500100000DC1F002069
:103E3000C94211D300B549004908002200F018F822
:103E4000002904D4002240428A41114600BD80214D
:103E50000906002000BD000018B4044BDB6EFC46D0
:103E6000019308BD6CDF274400100000DC1F002018
:103E700018B4044B9B6FFC46019308BD78DF4344A4
:103E800000100000DC1F002018B4044BDB6FFC4660
:103E9000019308BD7CDFB14400100000DC1F00204E
:103EA00070B513231C78012C12D0012C12DC214B8D
:103EB000214A93642148FFF72FFC214B186070BD05
:103EC0001C491D4A9800815001331F2BF8D9ECE79B
:103ED0000023FAE71B48FFF727FC05001A48FFF705
:103EE00023FC023803789B007F2B09DD12488022D7
:103EF000290000F059FC022C08D0022CDADCD6E7AD
:103F0000124B134A13483221FEF758FA124B1A8803
:103F1000B5231B029A4209D1104B1A88104B9A42C2
:103F200004D1104B1A88104B9A42E6D00020FEF7BD
:103F3000DDFAC0466D3F0010DC1F00204C3300004E
:103F4000DC2000205344000053460000ACDC00108D
:103F5000F8E7001000DD001054380000D8380000E9
:103F6000494600009C3800005946000007B56046ED
:103F7000002800D100BE01880A0A0230DF2AFAD1E7
:103F8000C9B2820804D3028840880004104300E0CC
:103F90000068024A5050039007BD0000DC1F00205B
:103FA0000FB403BC0CBCF0B50124E407634000E08F
:103FB000F0B50C0DCF0F661E3605891B640503D3C3
:103FC000C943404200D30131640D03D0661CF60A98
:103FD00007D0E41B00207F00791C89078912803CF0
:103FE00024031D0DDF0F6E1E36059B1B6D0503D3CD
:103FF000DB43524200D301336D0D03D06E1CF60A31
:1040000007D0ED1B00227F007B1C9B079B12803D8D
:104010002D032F1B661B58D4A446202E46DA2037CA
:104020001400BC401D00BD40F24033412A438018BB
:104030005941CB0F05D0C943C043002264425041CF
:10404000514162464D0D28D10D0D07D100281FD0DA
:10405000241940414941013A0D0DF9D0640006D3BD
:10406000013000D30131002C01D140084000013A59
:104070000BD4941CE40A04D112051144DB07194443
:10408000F0BDD907204B194300E0D9070020F0BD4F
:104090000029DDD1002CDBD1F0BD0132C60740087C
:1040A000CD0728434908002EE1D0D9E73C2E29DA74
:1040B000203E40371400BC4000D00124F24014439D
:1040C0001A00BB401C43D317ACE7AC46202F08DADC
:1040D00020360400B4400D00B540F8403941284373
:1040E000A5E73C2F0CDA203F40360400B44000D056
:1040F0000124F84004430800B1400C43C117EAE72B
:1041000010001900002494E70000F07FF0B50C0DBA
:10411000661E3605891BE60A6405640D02D0651C1F
:10412000ED0A04D0002001210905803C2403A446A7
:104130001C0D671E3F05DB1BE70A6405640D02D0FA
:10414000651CED0A04D0002201231B05803C2403DA
:104150007740644497B484B296B27443070C7E43AC
:10416000150C6F4380B26843361802D30120000457
:104170003F183004350C00197D41844688B29AB24C
:1041800050430C0C62431F0C7C438EB27E43921949
:1041900002D301263604A4191604170C36186741F9
:1041A00001BC81B29AB25143040C62431B0C5C43C4
:1041B00080B25843121802D30120000424181004BE
:1041C000130C401863412D185E410020474106BC86
:1041D00088B293B258430C0C6343120C544389B217
:1041E00051435B1802D301210904641819041A0C05
:1041F000091862416D1856410020474118BCF90268
:10420000720D1143F0026A0D1043ED020A0D03D145
:104210006D1940414941013B124E9B1B7600B34250
:104220000ED26D0007D3013000267141664635433A
:1042300001D1400840001B05C918E4072144F0BD26
:104240000BDA013306D1013004D101314F0D01D019
:104250004908F2E7E1070020F0BD013631050020F2
:10426000EBE70000FF030000F0B51C0D671E3F05E3
:10427000DB1BE70A6405640D02D0661CF60A04D055
:10428000002201231B05803C2403D0252D06002697
:10429000F6432E661E096E66CE0FF619B446490027
:1042A0004F0D02D07E1CF60A03D000200021403FB3
:1042B0003F033E1BB600B444013F7F05C91B4908BC
:1042C0002E6F013676089C02950D25437543ED133C
:1042D0007543AD1301356D10F603761B0CB4CC029B
:1042E000450D2C43A2B2B3B25A43270C7B43350C85
:1042F0006F43A4B26C431B1902D3012424043F1959
:104300001C041D0CA4187D4124196D41009A91B222
:10431000ACB26143170C7C432B0C5F4392B25A43FF
:10432000A41802D301221204BF182204230C52182D
:104330007B41019C6C431B19520ED9010A43440175
:10434000A01A81B2B2B2514303145A43360C7343DC
:1043500087B27743D617D21900277E4136049B19BE
:104360001704160C7F185E417316ED18F301002632
:1043700080337541A90F06D16400690AE8055B0A1C
:10438000184309D22FE00422944480337541A90ACE
:10439000A8059B0A184326D3404149412404009AAA
:1043A000019B0D005543641B4343E41A95B286B24A
:1043B0007543170C7E43030C5F4392B25A43B61801
:1043C00002D301221204BF183204330C52197B416C
:1043D00052429C41002C02D400220130514140083D
:1043E000CA071043490802B06246D7079210084B2B
:1043F000D218084B9A4203D212058918C919F0BD88
:104400000020002A01DC3900F0BD01331905F5E771
:10441000FD030000FE070000002200B5203200F07E
:1044200010F8080000BD002200B500F00CF8CA1713
:104430009A4200D100BDD8430121C907414000BDC7
:1044400000220B150AD410B5944600F0A7F81414F6
:10445000013400DA0021CB17144C20470020002142
:1044600070476244343A0CD40C2A07DA04009140B5
:10447000904052422032D440214310BDD843D9430A
:1044800010BD203207D40C469440524220321141D4
:10449000D040204310BD0800C917203203D4524237
:1044A0002032104110BD1800190010BD63440010E7
:1044B0004A00520D144BD21A13DDFF2A1EDAD20520
:1044C000CB0FDB071A43C300400F0903490A084317
:1044D00010435B0001D301D0013070474308FBD289
:1044E000704702D0C80FC00770470A031213013289
:1044F000F8D1420F072AF5D1012200E0FF22C80FB0
:1045000000028018C00570478003000000210A00E7
:10451000002104E000210A00C11704E0002200236A
:1045200006E0C0460022CB1758405940C01A9941B6
:1045300030B5184CA21A002903D1010010D0002078
:10454000203A4C1512D104D2013A001849414C0DC1
:10455000FAD3114CA24204D212058918DB07C918FC
:1045600030BDD243520D00200021F5E703D4013ABB
:1045700000184941FBD50B324405C00A4D052843BC
:10458000C90A640003D0002460416141E1E7E0D33F
:104590004408F8E732040000FE0700000A0DCC0FC3
:1045A000531E1B05C91A520503D3C943404200D309
:1045B0000131520D03D0531CDB0A07D0121B00201F
:1045C0006400611C89078912803A1203014BD21AD8
:1045D00070470000FF03000051434343C9188C4655
:1045E000110C83B24B4310B4040C614392B280B2FD
:1045F000504362431C041B0C001910BC59411304A6
:10460000120CC018514161447047000070B513236B
:104610001E782A48FFF788F80500012E11D0012ED8
:1046200009DDAB1E1B789B007F2B40DD24488022D8
:10463000290000F0B9F82348FFF76EF8224B186004
:1046400070BD1F485422290000F0AEF81F4B1A8895
:104650001F4B9A421CD1A7239B011A881D4B9A42DB
:1046600016D11D4B1A881D4B9A4211D11C4B1A882A
:1046700094239B019A420BD11A4B1A881A4B9A42E7
:1046800006D11A4B1A681A4B9A4201D1152307E03A
:104690001848FDF72BFF184C094A99008C5001333C
:1046A0001F2BF8D9144B064A1362D361B7E7134B9B
:1046B000134A14484221FDF781FEC04653460000CC
:1046C000E02000204C330000DC200020EE29000018
:1046D000C40F0000C20D0000962B0000C0B5000002
:1046E000182B0000CC2A000010B50000FC2C0000A4
:1046F00051ED8764E0DB00100947001054DD001025
:104700000CE8001088DD001007B56046002800D1D5
:1047100000BE01880A0A0230DF2AFAD1C9B2820833
:1047200004D3028840880004104300E00068024A75
:104730005050039007BD0000E020002010B5002875
:1047400004D04018034B984200D810BD0248FDF732
:10475000CDFEC04600000420DCDD001070B5050071
:1047600002F09AFD04002900FFF7E8FF200070BD69
:1047700070B50D0003F096F804002900FFF7DEFF86
:10478000200070BD10B502F091FD10BD014804215C
:10479000014B1847900B002039370010014B1B6864
:1047A00018470000900B0020014B5B681847000081
:1047B000900B0020084B5B6A994209D8064A926A1E
:1047C000824207D2994201D0012002E0002000E09D
:1047D000002070470120FCE70040054010B50300B1
:1047E000080011001B68984710BD0000F8B50700CD
:1047F0000D001600437D002B02D0002400200CE0A9
:1048000003681100280098472DE03B7D10E03B68CD
:10481000154802219847601C0134B44214DA002C78
:10482000F3DD2B19013B1B780D3B5A425341DBB2A0
:104830002A5D0A2AF0D1002BEED1A042E7DA3B68CC
:10484000211A28189847E2E7B04203DA3B68311A88
:1048500028189847002E06DDAD19013D2B780D3B39
:104860005A4253413B75F8BD44E8001070B505004D
:104870000368002B16D00C4B1C6805E0290004C906
:104880002000FFF7B3FF2469002C09D02368002B18
:10489000F9D0064B1B68002BF0D0A342F3D1EDE713
:1048A00000232B6070BDC046201B00202C1B002065
:1048B00070B505000C000B68802B05D023685A1CCE
:1048C0002260E418257170BD0800FFF7CFFFF5E7FF
:1048D00010B5002B02DB0260436010BD024B034A9F
:1048E00003483F21FDF76AFD88D5001048E8001015
:1048F000A4D5001010B582B00400FCF7B7FF020089
:104900000B006846FFF7E4FF009A019B226063609A
:10491000200002B010BD000070B582B00600140087
:104920001D00FA229200002306980021FFF754FE92
:1049300002000B0012196B41002B09DB6846FFF7E0
:10494000C7FF009A019B32607360300002B070BDF7
:1049500001225242004BF1E7FFFFFF7F30B585B0E7
:1049600004000D0002A8FFF7C5FF029A039B009503
:104970002000FFF7D1FF200005B030BDF8B5CE46CE
:10498000474680B507000E00914698461BE0A36895
:10499000002B04D0310038009847002818DC246927
:1049A000002C06D00C4D2D68002DF0D0A542F6D17C
:1049B000EDE748464146FFF7FDFE002806D10120FD
:1049C0000021FCF773FF054B1C68E9E7012040421A
:1049D000C0BCB946B046F8BD2C1B0020201B0020EF
:1049E00000B583B0FA2189006846FFF7B7FF009A47
:1049F000019B024808F05CFC03B000BD901200204F
:104A000010B5024808F024FC10BDC04690120020EA
:104A1000F0B5CE46474680B583B006000D009046FF
:104A20001C00FFF7DDFF81466B1C05D0002C08D071
:104A3000194F1A4B1C6807E0300003F07FF905009E
:104A4000F4E7174FF5E72469002C17D02368002BF3
:104A5000F9D0144B1B68002B01D0A342F3D12A00DC
:104A600031002000B8474346002BECD06B46D91DDF
:104A70000A230B7001222000B847E4E74B46002BC5
:104A800007D16B1E9D41E8B203B0C0BCB946B04629
:104A9000F0BDFFF7B5FFF4E7DD470010201B002055
:104AA000ED4700102C1B002010B50300080011007A
:104AB000002B05D1044B1A685B68FFF75FFF10BD40
:104AC00001204042FBE7C04658E5001010B5030046
:104AD00008001400013B012B06D80023002221000E
:104AE000FFF796FF200010BD01204042FBE70120A8
:104AF00040427047012040427047012040427047C9
:104B00000300002002229A4240417047094A01E016
:104B100010331A001368002B08D08342F8D1002903
:104B200007D1036913600023036102E0002900D06C
:104B300010607047201B002010B5064B1C6801E078
:104B400098472469002C03D06368002BF8D1F8E75C
:104B500010BDC046201B002070B5050003F0EEF824
:104B600004000023012201002800FFF751FFFFF796
:104B7000E3FF200070BD000070B5A2B004000E007D
:104B8000FFF72EFF0500002301930A48330022009F
:104B900001A9FEF7A9FD040001A8FFF767FEFFF7D2
:104BA000CBFF002D02D1200022B070BDFFF728FFFF
:104BB000F9E7C046B14800100FB400B583B004A9AE
:104BC00001C90191FFF7D8FF03B008BC04B0184732
:104BD00010B500F0AFF910BD70470000014B002286
:104BE0001A707047162200204B79FF2B0CD18B795D
:104BF000002B0BD1CB79012B0AD1082A0AD98A784C
:104C0000054B1A70092000E0002070470020FCE7E7
:104C10000020FAE70020F8E7162200200120704764
:104C200070B504000D000348FEF776FD030029006F
:104C3000200098475542000010B5012926D111796E
:104C400053791B020B43124909788B4201D0002093
:104C50001DE05378012B03D0022B10D0002016E06A
:104C60009178D3781B021943DB0506D54B0A012046
:104C700098407F231940FFF7D3FF0020F9E7642213
:104C800000210020FDF740FB012000E0012010BDC5
:104C900016220020012303700048704760E80010CE
:104CA00010B50A784B781B0213438A7812041A4312
:104CB000CB781B0613439622D200934200D010BD3E
:104CC00000210800FFF7ACFF024B1860024B19608F
:104CD0007047C046841A0020881A002010B5002BA7
:104CE00002DB0260436010BD024B034A03483F21D0
:104CF000FDF764FB88D5001094E80010A4D50010DF
:104D000010B582B00400FCF7B1FD02000B0068464C
:104D1000FFF7E4FF009A019B22606360200002B06D
:104D200010BD000070B582B0060014001D00FA220C
:104D30009200002306980021FFF74EFC02000B00B2
:104D400012196B41002B09DB6846FFF7C7FF009A79
:104D5000019B32607360300002B070BD012252428C
:104D6000004BF1E7FFFFFF7F30B585B004000D0079
:104D700002A8FFF7C5FF029A039B00952000FFF7EA
:104D8000D1FF200005B030BD10B582B004000498FA
:104D9000059912184B41002B09DB6846FFF79EFF6F
:104DA000009A019B22606360200002B010BD0122C6
:104DB0005242014BF1E7C046FFFFFF7F10B5024BA7
:104DC0001878FBF7D1FC10BD172200200268EFF322
:104DD000108172B61368002BFCD0BFF35F8F416067
:104DE0007047000070B50F4B1B68002B16D00D4CA0
:104DF0002000FFF7EBFF0C4B00221A70216863685C
:104E0000BFF35F8F0A6083F3108800240025074BEF
:104E10001878FBF7A9FC2000290070BDFA24A40033
:104E20000025F4E7BC1F00201822002017220020D4
:104E3000F0B587B0040016001D000EAB1F7804A863
:104E4000FFF75EFF049A059B0096019504A8FFF703
:104E50009BFF049A059B02970D9901910C99009173
:104E60002000FCF711FB07B0F0BDF0B5C64600B559
:104E700084B00500884616001F000AAB1C78FCF7BA
:104E8000EDFA0294019700962A004346FFF7D0FFFF
:104E900004B080BCB846F0BD10B582B019480021FE
:104EA00008F0EEF9002822D1174B1B68002B26D002
:104EB000154C2000FFF78AFF144A137801214B405C
:104EC000DBB20121117021686268BFF35F8F00209F
:104ED000086082F31088002B11D00D4A0123009343
:104EE0000023FA2080000021FFF7BFFF07E0012028
:104EF0000021404201F08CF8024808F0A9F902B004
:104F000010BDC046E4210020BC1F00201822002054
:104F1000E54D001010B5054B1868002804D0044B6F
:104F20001968002200F09EFD10BDC046841A0020C2
:104F3000881A002010B582B0D0231B061C68FCF72D
:104F40008DFAFCF79BFBA0422CD1234B1B7801F080
:104F50002DFD2248FBF719FF0120FBF7A3FE204C93
:104F600020702049FF231840FBF720FC2078012106
:104F7000FBF7F2FB0520FBF707FC041E18D01A49CB
:104F800000220520FBF73CFCFBF73AFB0100174B26
:104F90001800FBF717FF16480121FFF7B7FD2000A7
:104FA00002B010BD134B144A1448B221FDF706FAA3
:104FB000134A012300930023FA2080000021FFF709
:104FC00054FFC443E40F094808220021FFF7E6FB21
:104FD000002CE4D0DFE7C0466C5D0110E421002026
:104FE00017220020994E0010BD4D0010BC1F00205C
:104FF000A00B002028D5001084E8001028DE001047
:10500000E54D001010B5002001F0FAF910BD0000C8
:1050100030B583B004000D00FFF7F4FF002830D056
:10502000002001F009FA00282ED0FA2189006846F4
:10503000FFF79AFE009A019B164808F039F90028FC
:1050400025D0FFF7DFFF002804D0002001F0F4F99D
:1050500000280CD101200021404200F0D9FF032498
:1050600064420C4808F0F4F8200003B030BD2A0078
:105070002100002001F0ECF9041EF2D10324644267
:10508000EFE703246442EFE703246442ECE70324E0
:105090006442E9E7E4210020F0B5C64600B582B0DD
:1050A00080460D00FA2189006846FFF75DFE009AF0
:1050B000019B2C4808F0FCF8002803D102B080BC0A
:1050C000B846F0BDFFF79EFF002849D1264B0020CF
:1050D000002118605960234808F0BAF8EEE7012073
:1050E0000021404200F094FF002001F0C5F9FFF7D5
:1050F00089FF0028EFD0002001F036FA002820D0E8
:10510000AC42E8DA2E1B002001F02EFA02008642A3
:1051100000DC3200002AE2D043461919002001F0D9
:1051200007FA060001200021404200F071FF002034
:1051300001F0A2F9A419FCF799FB0B4B1860596018
:10514000DEE7FCF793FB084B1E685F68074A002305
:1051500092197B419942BED8D2D19042D0D9BAE7B8
:105160000024CDE7E4210020B013002020A1070097
:105170000048704718E9001000487047C4E8001064
:1051800010B50400154B1B78002B0ED0002C11D14C
:10519000134B144A5A80012301335B009BB2104821
:1051A000C02292001343038010BD0C48112100F06F
:1051B00025F8EBE7052C0ED80B4BA400E458002390
:1051C000122BE9D8E15C0029E6D00133044A5800EB
:1051D0008152DBB2F4E70020E6E7C046002200205F
:1051E000F81A002009040000ACE8001010B50248CD
:1051F00000F032F810BDC046D41F002010B50029C1
:1052000001D000230AE0104B104A11481F31FDF76E
:10521000D5F800220DE03732C25401334A1E9A42BB
:105220000ED90F2B0CD85A080A4CA45CDA07F0D41C
:10523000042214410F222240092AECDC3032EBE731
:10524000C0180023037010BDB8DE00102CE9001058
:10525000C0DE0010D41F002030B589B0040004ADBA
:105260000D2200212800FFF799FA0D22002168463F
:10527000FFF794FA4B232B700D226946280007F0A4
:10528000DFFF002304E05A1D69468A5CE2540133C3
:10529000072BF8DD09B030BD02007F201040D20995
:1052A000400080184001014BC0187047341B00209B
:1052B00010B5038B3F333F229343022915D0124C84
:1052C0002268C260D31823609C0610D10F4C624044
:1052D000634080246401A3420FD8890611438023D0
:1052E0001B060B434268136010BD5B00E7E7084BE9
:1052F000084A09485421FDF761F8084B054A064859
:105300005621FDF75BF8C046A01F0020000010509A
:1053100074E000109CE90010A4E0001004E100100B
:10532000F8B505000E001400FFF7B6FF7F232B40F1
:10533000EF0985707A427A4142700022C27006837A
:10534000C476012F0DD0DA0012498C466244826087
:10535000826800211160002B09D143600E4BC360AD
:10536000F8BDDA000D498C4662448260F0E7012FF7
:1053700009D0013BDB000A4A9446634443602100A4
:10538000FFF796FFECE7013BDB00064A94466344D7
:105390004360F4E78400105000011050800010506A
:1053A0000C0010500800105070B584B006000D00BD
:1053B00014000C22002101A8FFF7F0F96B461E71C2
:1053C00003236A4653710295210001A807F068FF84
:1053D00004B070BD70B50C001500FFF75DFF2A002A
:1053E000210000F00DF970BD10B5002804D1012195
:1053F0000520FBF7B1F910BD034B044AD521044841
:105400004900FCF7DBFFC0464CE100108CE90010BE
:10541000A4E0001010B5002805D100220021802052
:10542000FFF7D8FF10BD034B034ADB2103484900B7
:10543000FCF7C4FF4CE100107CE90010A4E0001070
:10544000024B80225202DA647047C046002011509D
:1054500070B5041E26D100F0ADF8164D0C23AB67D5
:105460001549FF220520FBF7CBF914484022002103
:10547000FFF794F9002240210020FFF751FF00229E
:1054800040218020FFF74CFF07F03AFF01232B64F7
:1054900080239B05EB649023094AEA502000FFF724
:1054A000CFFF70BD074B084A86210848FF31FCF743
:1054B00085FFC0460000115051040020341B00201D
:1054C00010D001004CE10010B0E90010A4E0001081
:1054D0000B785B0602D14B78052B00D070478A7899
:1054E000014B1A60FAE7C0460000115010B50A00DF
:1054F00000280DD18878097953791B020B435B058D
:10550000590DD2789207920FFFF70AFF012010BDC4
:10551000034B044AFC210448FF31FCF74FFFC0460F
:105520004CE100106CE90010A4E0001010B507F089
:10553000E7FE10BD10B50400080011001A00002C91
:1055400003D1FFF747FF012010BD034B034A044876
:105550000449FCF733FFC0464CE100105CE9001041
:10556000A4E000100A02000010B508004B0605D1A7
:10557000CB09012B0AD00222054B9A66FFF78CFE5D
:1055800080221201002107F0B3FE10BD0122F3E7D3
:105590000020115010B508004B0600D110BDFFF7D8
:1055A0007BFE0023C3700022014907F0A1FEF5E74E
:1055B000FFF7FFFF10B580235B040C4A13600C4A11
:1055C00013600C4B9A6880235B049343F9D10A4C17
:1055D0009C2200212000FFF7E1F8802252010021E7
:1055E0000648FFF7DBF80923636710BD00E00040C1
:1055F00000F0004000C000400000115000001050BA
:1056000070B504000D001600837E002B17D1A68212
:105610000023E3820133A3762561200007F008FE12
:10562000002804D0094A902380218902D15020000B
:1056300007F056FE002805D00123237770BD07F040
:1056400047FEE4E7200007F03BFEF7E7002011509B
:1056500070B5050000240CE062001219D200184B4E
:105660001B689B18002B2AD05B68280098470134E0
:10567000E4B2144B1B78A34210D3134A002A0BD078
:10568000A342E9D8E31ADBB2002B18D15A00D31891
:10569000DB000E4A9B18E7E72300F5E70C4C53228A
:1056A00000212000FFF77AF8E01C1022FF21FFF70D
:1056B00075F8200013302022FF21FFF76FF870BD2E
:1056C0003015002011220020954C001058EA0010DF
:1056D000581800200268EFF3108172B61368002B8F
:1056E000FCD0BFF35F8F4160704710B5FFF7B0FF8C
:1056F00000F0E4FD10BD70B505000C001600C86890
:1057000000F0E6FDE368320001212800984770BDF3
:10571000F0B5DE4657464E46C0B582B0009001391E
:10572000C8B2FFF729FD002800D18EE043789A46E1
:10573000022B00D08BE0C5796C1101224A4B14403A
:10574000240119781026B14321431970AD112A4064
:105750005201C9B22024A1430A431A700700093735
:105760008278C3781B021343C418A74266D27B78A1
:105770000B2B09D001239B467B78042B6ED1E31BB6
:105780009BB29946002538E0FB789B463B78FF1892
:10579000F2E76B005B19DB00344A1668F618002E3E
:1057A0003DD1002054E02B0032E0B268304B9A42E9
:1057B00042D1D34640E02C49CB18DD700132D2B241
:1057C000934509D9BB789B18DBB22749C918C9781A
:1057D000FF29F0D000203BE026482B00019E32003C
:1057E000390001F06FF9B4466744234B1B78AB4294
:1057F000BBD200202CE00135EDB21F4B1B78AB4231
:10580000F3D31E4A002ACED0AB42C2D8EB1ADBB289
:10581000002B25D15E00F618F600194BF618B36878
:105820004A4639000098984701900828E3D98145F5
:10583000E1D35B46012BB8D00022C1E7114B002B0E
:1058400010D000E000BF012002E0002000E00020B6
:1058500002B0E0BCBB46B246A946F0BD0020F7E767
:105860000020F5E70120F3E758180020301500204C
:10587000856600106B18002011220020954C001046
:1058800058EA00100000000070B505000C00CB784D
:1058900088780F2B50D89A002E498A589746FFF7E0
:1058A00067FC020012232100280000F0D3FC44E032
:1058B000294B002B42D000E000BF021E40D081786F
:1058C000C3781B020B432100280000F0C3FC34E026
:1058D000022B09D0214B002B34D000E000BF020086
:1058E000002A05D1002028E0FFF746FC0200F7E778
:1058F0009178D3781B020B432100280000F0AAFC0A
:105900001BE02379617909021943FFF739FC021E74
:105910001AD003782100280000F09CFC0DE0104B09
:10592000002B13D000E000BF021E11D0037821002D
:10593000280000F08FFC00E0002070BD0020FCE794
:105940000020FAE70020F8E70020F6E70020F4E75F
:105950000020F2E7CCE90010000000000000000089
:1059600000000000024B5878431E9841C0B27047B7
:1059700058180020024B18784007C00F7047C046E7
:1059800058180020034B1878FF38431E9841C0B2C6
:105990007047C046DC0B002070B50400FFF7F2FF33
:1059A000061E01D0300070BD244853220021FEF7AE
:1059B000F5FE234D2800FBF7E8F9224B1D60224D30
:1059C0002800FBF709FA143D280001F0CFFB1F4B1C
:1059D0001D601F4B002B04D01E48FFF75BF91E4BC8
:1059E000186000250BE06A005219D2001A4B1B68A0
:1059F0009B18002BD6D01B6898470135EDB2154B8C
:105A00001B78AB4210D3124A002A0BD0AB42EAD823
:105A1000EB1ADBB2002BC5D15A00D318DB000F4ABA
:105A20009B18E8E72B00F5E70D4B1C702000FFF7F3
:105A30000FFD2000FFF7D8FC0126B3E7581800201F
:105A400010180020AC180020D40B0020B018002043
:105A5000954C0010112200203015002058EA00104B
:105A6000DC0B0020F0B585B007000E00150001AC7E
:105A70000C2200212000FEF791FE0823637002979C
:105A800003962900200007F00BFC05B0F0BD0000D4
:105A900070B50C00094B1D788B7870221A4201D02A
:105AA000002070BD064B9978200000F0CFFF002841
:105AB000F7D021002800FFF719FDF2E7DC0B0020EA
:105AC00058180020F8B5CE46474680B581460C00F0
:105AD00017001E00089B9846002504E0099A1370E1
